{
  "_format": "hh-sol-artifact-1",
  "contractName": "NFTMarketplace",
  "sourceName": "contracts/NFTMarketplace.sol",
  "abi": [
    {
      "inputs": [],
      "stateMutability": "nonpayable",
      "type": "constructor"
    },
    {
      "anonymous": false,
      "inputs": [
        {
          "indexed": true,
          "internalType": "address",
          "name": "owner",
          "type": "address"
        },
        {
          "indexed": true,
          "internalType": "address",
          "name": "approved",
          "type": "address"
        },
        {
          "indexed": true,
          "internalType": "uint256",
          "name": "tokenId",
          "type": "uint256"
        }
      ],
      "name": "Approval",
      "type": "event"
    },
    {
      "anonymous": false,
      "inputs": [
        {
          "indexed": true,
          "internalType": "address",
          "name": "owner",
          "type": "address"
        },
        {
          "indexed": true,
          "internalType": "address",
          "name": "operator",
          "type": "address"
        },
        {
          "indexed": false,
          "internalType": "bool",
          "name": "approved",
          "type": "bool"
        }
      ],
      "name": "ApprovalForAll",
      "type": "event"
    },
    {
      "anonymous": false,
      "inputs": [
        {
          "indexed": true,
          "internalType": "uint256",
          "name": "tokenId",
          "type": "uint256"
        },
        {
          "indexed": false,
          "internalType": "address",
          "name": "seller",
          "type": "address"
        },
        {
          "indexed": false,
          "internalType": "address",
          "name": "owner",
          "type": "address"
        },
        {
          "indexed": false,
          "internalType": "uint256",
          "name": "price",
          "type": "uint256"
        },
        {
          "indexed": false,
          "internalType": "bool",
          "name": "sold",
          "type": "bool"
        }
      ],
      "name": "MarketItemCreated",
      "type": "event"
    },
    {
      "anonymous": false,
      "inputs": [
        {
          "indexed": true,
          "internalType": "address",
          "name": "from",
          "type": "address"
        },
        {
          "indexed": true,
          "internalType": "address",
          "name": "to",
          "type": "address"
        },
        {
          "indexed": true,
          "internalType": "uint256",
          "name": "tokenId",
          "type": "uint256"
        }
      ],
      "name": "Transfer",
      "type": "event"
    },
    {
      "inputs": [
        {
          "internalType": "address",
          "name": "to",
          "type": "address"
        },
        {
          "internalType": "uint256",
          "name": "tokenId",
          "type": "uint256"
        }
      ],
      "name": "approve",
      "outputs": [],
      "stateMutability": "nonpayable",
      "type": "function"
    },
    {
      "inputs": [
        {
          "internalType": "address",
          "name": "owner",
          "type": "address"
        }
      ],
      "name": "balanceOf",
      "outputs": [
        {
          "internalType": "uint256",
          "name": "",
          "type": "uint256"
        }
      ],
      "stateMutability": "view",
      "type": "function"
    },
    {
      "inputs": [
        {
          "internalType": "uint256",
          "name": "tokenId",
          "type": "uint256"
        }
      ],
      "name": "createMarketSale",
      "outputs": [],
      "stateMutability": "payable",
      "type": "function"
    },
    {
      "inputs": [
        {
          "internalType": "string",
          "name": "tokenURI",
          "type": "string"
        },
        {
          "internalType": "uint256",
          "name": "price",
          "type": "uint256"
        }
      ],
      "name": "createToken",
      "outputs": [
        {
          "internalType": "uint256",
          "name": "",
          "type": "uint256"
        }
      ],
      "stateMutability": "payable",
      "type": "function"
    },
    {
      "inputs": [],
      "name": "fetchItemsListed",
      "outputs": [
        {
          "components": [
            {
              "internalType": "uint256",
              "name": "tokenId",
              "type": "uint256"
            },
            {
              "internalType": "address payable",
              "name": "seller",
              "type": "address"
            },
            {
              "internalType": "address payable",
              "name": "owner",
              "type": "address"
            },
            {
              "internalType": "uint256",
              "name": "price",
              "type": "uint256"
            },
            {
              "internalType": "bool",
              "name": "sold",
              "type": "bool"
            }
          ],
          "internalType": "struct NFTMarketplace.MarketItem[]",
          "name": "",
          "type": "tuple[]"
        }
      ],
      "stateMutability": "view",
      "type": "function"
    },
    {
      "inputs": [],
      "name": "fetchMarketItems",
      "outputs": [
        {
          "components": [
            {
              "internalType": "uint256",
              "name": "tokenId",
              "type": "uint256"
            },
            {
              "internalType": "address payable",
              "name": "seller",
              "type": "address"
            },
            {
              "internalType": "address payable",
              "name": "owner",
              "type": "address"
            },
            {
              "internalType": "uint256",
              "name": "price",
              "type": "uint256"
            },
            {
              "internalType": "bool",
              "name": "sold",
              "type": "bool"
            }
          ],
          "internalType": "struct NFTMarketplace.MarketItem[]",
          "name": "",
          "type": "tuple[]"
        }
      ],
      "stateMutability": "view",
      "type": "function"
    },
    {
      "inputs": [],
      "name": "fetchMyItems",
      "outputs": [
        {
          "components": [
            {
              "internalType": "uint256",
              "name": "tokenId",
              "type": "uint256"
            },
            {
              "internalType": "address payable",
              "name": "seller",
              "type": "address"
            },
            {
              "internalType": "address payable",
              "name": "owner",
              "type": "address"
            },
            {
              "internalType": "uint256",
              "name": "price",
              "type": "uint256"
            },
            {
              "internalType": "bool",
              "name": "sold",
              "type": "bool"
            }
          ],
          "internalType": "struct NFTMarketplace.MarketItem[]",
          "name": "",
          "type": "tuple[]"
        }
      ],
      "stateMutability": "view",
      "type": "function"
    },
    {
      "inputs": [
        {
          "internalType": "uint256",
          "name": "tokenId",
          "type": "uint256"
        }
      ],
      "name": "getApproved",
      "outputs": [
        {
          "internalType": "address",
          "name": "",
          "type": "address"
        }
      ],
      "stateMutability": "view",
      "type": "function"
    },
    {
      "inputs": [],
      "name": "getListingPrice",
      "outputs": [
        {
          "internalType": "uint256",
          "name": "",
          "type": "uint256"
        }
      ],
      "stateMutability": "view",
      "type": "function"
    },
    {
      "inputs": [],
      "name": "getOwnerCommissionPercentage",
      "outputs": [
        {
          "internalType": "uint256",
          "name": "",
          "type": "uint256"
        }
      ],
      "stateMutability": "view",
      "type": "function"
    },
    {
      "inputs": [
        {
          "internalType": "address",
          "name": "owner",
          "type": "address"
        },
        {
          "internalType": "address",
          "name": "operator",
          "type": "address"
        }
      ],
      "name": "isApprovedForAll",
      "outputs": [
        {
          "internalType": "bool",
          "name": "",
          "type": "bool"
        }
      ],
      "stateMutability": "view",
      "type": "function"
    },
    {
      "inputs": [],
      "name": "name",
      "outputs": [
        {
          "internalType": "string",
          "name": "",
          "type": "string"
        }
      ],
      "stateMutability": "view",
      "type": "function"
    },
    {
      "inputs": [
        {
          "internalType": "uint256",
          "name": "tokenId",
          "type": "uint256"
        }
      ],
      "name": "ownerOf",
      "outputs": [
        {
          "internalType": "address",
          "name": "",
          "type": "address"
        }
      ],
      "stateMutability": "view",
      "type": "function"
    },
    {
      "inputs": [
        {
          "internalType": "uint256",
          "name": "tokenId",
          "type": "uint256"
        },
        {
          "internalType": "uint256",
          "name": "price",
          "type": "uint256"
        }
      ],
      "name": "resellToken",
      "outputs": [],
      "stateMutability": "payable",
      "type": "function"
    },
    {
      "inputs": [
        {
          "internalType": "address",
          "name": "from",
          "type": "address"
        },
        {
          "internalType": "address",
          "name": "to",
          "type": "address"
        },
        {
          "internalType": "uint256",
          "name": "tokenId",
          "type": "uint256"
        }
      ],
      "name": "safeTransferFrom",
      "outputs": [],
      "stateMutability": "nonpayable",
      "type": "function"
    },
    {
      "inputs": [
        {
          "internalType": "address",
          "name": "from",
          "type": "address"
        },
        {
          "internalType": "address",
          "name": "to",
          "type": "address"
        },
        {
          "internalType": "uint256",
          "name": "tokenId",
          "type": "uint256"
        },
        {
          "internalType": "bytes",
          "name": "data",
          "type": "bytes"
        }
      ],
      "name": "safeTransferFrom",
      "outputs": [],
      "stateMutability": "nonpayable",
      "type": "function"
    },
    {
      "inputs": [
        {
          "internalType": "address",
          "name": "operator",
          "type": "address"
        },
        {
          "internalType": "bool",
          "name": "approved",
          "type": "bool"
        }
      ],
      "name": "setApprovalForAll",
      "outputs": [],
      "stateMutability": "nonpayable",
      "type": "function"
    },
    {
      "inputs": [
        {
          "internalType": "bytes4",
          "name": "interfaceId",
          "type": "bytes4"
        }
      ],
      "name": "supportsInterface",
      "outputs": [
        {
          "internalType": "bool",
          "name": "",
          "type": "bool"
        }
      ],
      "stateMutability": "view",
      "type": "function"
    },
    {
      "inputs": [],
      "name": "symbol",
      "outputs": [
        {
          "internalType": "string",
          "name": "",
          "type": "string"
        }
      ],
      "stateMutability": "view",
      "type": "function"
    },
    {
      "inputs": [
        {
          "internalType": "uint256",
          "name": "tokenId",
          "type": "uint256"
        }
      ],
      "name": "tokenURI",
      "outputs": [
        {
          "internalType": "string",
          "name": "",
          "type": "string"
        }
      ],
      "stateMutability": "view",
      "type": "function"
    },
    {
      "inputs": [
        {
          "internalType": "address",
          "name": "from",
          "type": "address"
        },
        {
          "internalType": "address",
          "name": "to",
          "type": "address"
        },
        {
          "internalType": "uint256",
          "name": "tokenId",
          "type": "uint256"
        }
      ],
      "name": "transferFrom",
      "outputs": [],
      "stateMutability": "nonpayable",
      "type": "function"
    },
    {
      "inputs": [
        {
          "internalType": "uint256",
          "name": "_listingPrice",
          "type": "uint256"
        }
      ],
      "name": "updateListingPrice",
      "outputs": [],
      "stateMutability": "payable",
      "type": "function"
    },
    {
      "inputs": [
        {
          "internalType": "uint256",
          "name": "_ownerCommissionPercentage",
          "type": "uint256"
        }
      ],
      "name": "updateOwnerCommissionPercentage",
      "outputs": [],
      "stateMutability": "payable",
      "type": "function"
    }
  ],
  "bytecode": "0x60806040526801158e460913d00000600955600f600a55600a546103e86200002891906200014b565b600b553480156200003857600080fd5b506040518060400160405280600781526020017f41727462797465000000000000000000000000000000000000000000000000008152506040518060400160405280600381526020017f41525400000000000000000000000000000000000000000000000000000000008152508160009081620000b69190620003f6565b508060019081620000c89190620003f6565b50505033600c60006101000a81548173ffffffffffffffffffffffffffffffffffffffff021916908373ffffffffffffffffffffffffffffffffffffffff160217905550620004dd565b6000819050919050565b7f4e487b7100000000000000000000000000000000000000000000000000000000600052601160045260246000fd5b6000620001588262000112565b9150620001658362000112565b925082820390508181111562000180576200017f6200011c565b5b92915050565b600081519050919050565b7f4e487b7100000000000000000000000000000000000000000000000000000000600052604160045260246000fd5b7f4e487b7100000000000000000000000000000000000000000000000000000000600052602260045260246000fd5b600060028204905060018216806200020857607f821691505b6020821081036200021e576200021d620001c0565b5b50919050565b60008190508160005260206000209050919050565b60006020601f8301049050919050565b600082821b905092915050565b600060088302620002887fffffffffffffffffffffffffffffffffffffffffffffffffffffffffffffffff8262000249565b62000294868362000249565b95508019841693508086168417925050509392505050565b6000819050919050565b6000620002d7620002d1620002cb8462000112565b620002ac565b62000112565b9050919050565b6000819050919050565b620002f383620002b6565b6200030b6200030282620002de565b84845462000256565b825550505050565b600090565b6200032262000313565b6200032f818484620002e8565b505050565b5b8181101562000357576200034b60008262000318565b60018101905062000335565b5050565b601f821115620003a657620003708162000224565b6200037b8462000239565b810160208510156200038b578190505b620003a36200039a8562000239565b83018262000334565b50505b505050565b600082821c905092915050565b6000620003cb60001984600802620003ab565b1980831691505092915050565b6000620003e68383620003b8565b9150826002028217905092915050565b620004018262000186565b67ffffffffffffffff8111156200041d576200041c62000191565b5b620004298254620001ef565b620004368282856200035b565b600060209050601f8311600181146200046e576000841562000459578287015190505b620004658582620003d8565b865550620004d5565b601f1984166200047e8662000224565b60005b82811015620004a85784890151825560018201915060208501945060208101905062000481565b86831015620004c85784890151620004c4601f891682620003b8565b8355505b6001600288020188555050505b505050505050565b61431e80620004ed6000396000f3fe6080604052600436106101405760003560e01c80636352211e116100b6578063b88d4fde1161006f578063b88d4fde14610447578063be9af53614610470578063c87b56dd1461048c578063e219fc75146104c9578063e985e9c5146104e5578063f060a4471461052257610140565b80636352211e1461032d57806370a082311461036a57806372b3b620146103a757806395d89b41146103d7578063a22cb46514610402578063ae677aa31461042b57610140565b806312e855851161010857806312e855851461023e57806315c9ae101461026957806323b872dd146102945780633ff7abca146102bd57806342842e0e146102d957806345f8fa801461030257610140565b806301ffc9a71461014557806306fdde0314610182578063081812fc146101ad578063095ea7b3146101ea5780630f08efe014610213575b600080fd5b34801561015157600080fd5b5061016c60048036038101906101679190612b3e565b61054d565b6040516101799190612b86565b60405180910390f35b34801561018e57600080fd5b5061019761062f565b6040516101a49190612c31565b60405180910390f35b3480156101b957600080fd5b506101d460048036038101906101cf9190612c89565b6106c1565b6040516101e19190612cf7565b60405180910390f35b3480156101f657600080fd5b50610211600480360381019061020c9190612d3e565b610707565b005b34801561021f57600080fd5b5061022861081e565b6040516102359190612ed4565b60405180910390f35b34801561024a57600080fd5b50610253610a86565b6040516102609190612f05565b60405180910390f35b34801561027557600080fd5b5061027e610a90565b60405161028b9190612ed4565b60405180910390f35b3480156102a057600080fd5b506102bb60048036038101906102b69190612f20565b610d7c565b005b6102d760048036038101906102d29190612c89565b610ddc565b005b3480156102e557600080fd5b5061030060048036038101906102fb9190612f20565b610e76565b005b34801561030e57600080fd5b50610317610e96565b6040516103249190612ed4565b60405180910390f35b34801561033957600080fd5b50610354600480360381019061034f9190612c89565b611182565b6040516103619190612cf7565b60405180910390f35b34801561037657600080fd5b50610391600480360381019061038c9190612f73565b611233565b60405161039e9190612f05565b60405180910390f35b6103c160048036038101906103bc91906130d5565b6112ea565b6040516103ce9190612f05565b60405180910390f35b3480156103e357600080fd5b506103ec61132c565b6040516103f99190612c31565b60405180910390f35b34801561040e57600080fd5b506104296004803603810190610424919061315d565b6113be565b005b61044560048036038101906104409190612c89565b6113d4565b005b34801561045357600080fd5b5061046e6004803603810190610469919061323e565b61146e565b005b61048a60048036038101906104859190612c89565b6114d0565b005b34801561049857600080fd5b506104b360048036038101906104ae9190612c89565b611787565b6040516104c09190612c31565b60405180910390f35b6104e360048036038101906104de91906132c1565b611899565b005b3480156104f157600080fd5b5061050c60048036038101906105079190613301565b611a8e565b6040516105199190612b86565b60405180910390f35b34801561052e57600080fd5b50610537611b22565b6040516105449190612f05565b60405180910390f35b60007f80ac58cd000000000000000000000000000000000000000000000000000000007bffffffffffffffffffffffffffffffffffffffffffffffffffffffff1916827bffffffffffffffffffffffffffffffffffffffffffffffffffffffff1916148061061857507f5b5e139f000000000000000000000000000000000000000000000000000000007bffffffffffffffffffffffffffffffffffffffffffffffffffffffff1916827bffffffffffffffffffffffffffffffffffffffffffffffffffffffff1916145b80610628575061062782611b2c565b5b9050919050565b60606000805461063e90613370565b80601f016020809104026020016040519081016040528092919081815260200182805461066a90613370565b80156106b75780601f1061068c576101008083540402835291602001916106b7565b820191906000526020600020905b81548152906001019060200180831161069a57829003601f168201915b5050505050905090565b60006106cc82611b96565b6004600083815260200190815260200160002060009054906101000a900473ffffffffffffffffffffffffffffffffffffffff169050919050565b600061071282611182565b90508073ffffffffffffffffffffffffffffffffffffffff168373ffffffffffffffffffffffffffffffffffffffff1603610782576040517f08c379a000000000000000000000000000000000000000000000000000000000815260040161077990613413565b60405180910390fd5b8073ffffffffffffffffffffffffffffffffffffffff166107a1611be1565b73ffffffffffffffffffffffffffffffffffffffff1614806107d057506107cf816107ca611be1565b611a8e565b5b61080f576040517f08c379a0000000000000000000000000000000000000000000000000000000008152600401610806906134a5565b60405180910390fd5b6108198383611be9565b505050565b6060600061082c6007611ca2565b9050600061083a6008611ca2565b6108446007611ca2565b61084e91906134f4565b90506000808267ffffffffffffffff81111561086d5761086c612faa565b5b6040519080825280602002602001820160405280156108a657816020015b610893612a75565b81526020019060019003908161088b5790505b50905060005b84811015610a7b573073ffffffffffffffffffffffffffffffffffffffff16600d60006001846108dc9190613528565b815260200190815260200160002060020160009054906101000a900473ffffffffffffffffffffffffffffffffffffffff1673ffffffffffffffffffffffffffffffffffffffff1603610a685760006001826109389190613528565b90506000600d60008381526020019081526020016000209050806040518060a0016040529081600082015481526020016001820160009054906101000a900473ffffffffffffffffffffffffffffffffffffffff1673ffffffffffffffffffffffffffffffffffffffff1673ffffffffffffffffffffffffffffffffffffffff1681526020016002820160009054906101000a900473ffffffffffffffffffffffffffffffffffffffff1673ffffffffffffffffffffffffffffffffffffffff1673ffffffffffffffffffffffffffffffffffffffff168152602001600382015481526020016004820160009054906101000a900460ff161515151581525050848681518110610a4b57610a4a61355c565b5b6020026020010181905250600185610a639190613528565b945050505b8080610a739061358b565b9150506108ac565b508094505050505090565b6000600954905090565b60606000610a9e6007611ca2565b905060008060005b83811015610b46573373ffffffffffffffffffffffffffffffffffffffff16600d6000600184610ad69190613528565b815260200190815260200160002060020160009054906101000a900473ffffffffffffffffffffffffffffffffffffffff1673ffffffffffffffffffffffffffffffffffffffff1603610b3357600183610b309190613528565b92505b8080610b3e9061358b565b915050610aa6565b5060008267ffffffffffffffff811115610b6357610b62612faa565b5b604051908082528060200260200182016040528015610b9c57816020015b610b89612a75565b815260200190600190039081610b815790505b50905060005b84811015610d71573373ffffffffffffffffffffffffffffffffffffffff16600d6000600184610bd29190613528565b815260200190815260200160002060020160009054906101000a900473ffffffffffffffffffffffffffffffffffffffff1673ffffffffffffffffffffffffffffffffffffffff1603610d5e576000600182610c2e9190613528565b90506000600d60008381526020019081526020016000209050806040518060a0016040529081600082015481526020016001820160009054906101000a900473ffffffffffffffffffffffffffffffffffffffff1673ffffffffffffffffffffffffffffffffffffffff1673ffffffffffffffffffffffffffffffffffffffff1681526020016002820160009054906101000a900473ffffffffffffffffffffffffffffffffffffffff1673ffffffffffffffffffffffffffffffffffffffff1673ffffffffffffffffffffffffffffffffffffffff168152602001600382015481526020016004820160009054906101000a900460ff161515151581525050848681518110610d4157610d4061355c565b5b6020026020010181905250600185610d599190613528565b945050505b8080610d699061358b565b915050610ba2565b508094505050505090565b610d8d610d87611be1565b82611cb0565b610dcc576040517f08c379a0000000000000000000000000000000000000000000000000000000008152600401610dc390613645565b60405180910390fd5b610dd7838383611d45565b505050565b3373ffffffffffffffffffffffffffffffffffffffff16600c60009054906101000a900473ffffffffffffffffffffffffffffffffffffffff1673ffffffffffffffffffffffffffffffffffffffff1614610e6c576040517f08c379a0000000000000000000000000000000000000000000000000000000008152600401610e63906136d7565b60405180910390fd5b80600a8190555050565b610e918383836040518060200160405280600081525061146e565b505050565b60606000610ea46007611ca2565b905060008060005b83811015610f4c573373ffffffffffffffffffffffffffffffffffffffff16600d6000600184610edc9190613528565b815260200190815260200160002060010160009054906101000a900473ffffffffffffffffffffffffffffffffffffffff1673ffffffffffffffffffffffffffffffffffffffff1603610f3957600183610f369190613528565b92505b8080610f449061358b565b915050610eac565b5060008267ffffffffffffffff811115610f6957610f68612faa565b5b604051908082528060200260200182016040528015610fa257816020015b610f8f612a75565b815260200190600190039081610f875790505b50905060005b84811015611177573373ffffffffffffffffffffffffffffffffffffffff16600d6000600184610fd89190613528565b815260200190815260200160002060010160009054906101000a900473ffffffffffffffffffffffffffffffffffffffff1673ffffffffffffffffffffffffffffffffffffffff16036111645760006001826110349190613528565b90506000600d60008381526020019081526020016000209050806040518060a0016040529081600082015481526020016001820160009054906101000a900473ffffffffffffffffffffffffffffffffffffffff1673ffffffffffffffffffffffffffffffffffffffff1673ffffffffffffffffffffffffffffffffffffffff1681526020016002820160009054906101000a900473ffffffffffffffffffffffffffffffffffffffff1673ffffffffffffffffffffffffffffffffffffffff1673ffffffffffffffffffffffffffffffffffffffff168152602001600382015481526020016004820160009054906101000a900460ff1615151515815250508486815181106111475761114661355c565b5b602002602001018190525060018561115f9190613528565b945050505b808061116f9061358b565b915050610fa8565b508094505050505090565b6000806002600084815260200190815260200160002060009054906101000a900473ffffffffffffffffffffffffffffffffffffffff169050600073ffffffffffffffffffffffffffffffffffffffff168173ffffffffffffffffffffffffffffffffffffffff160361122a576040517f08c379a000000000000000000000000000000000000000000000000000000000815260040161122190613743565b60405180910390fd5b80915050919050565b60008073ffffffffffffffffffffffffffffffffffffffff168273ffffffffffffffffffffffffffffffffffffffff16036112a3576040517f08c379a000000000000000000000000000000000000000000000000000000000815260040161129a906137d5565b60405180910390fd5b600360008373ffffffffffffffffffffffffffffffffffffffff1673ffffffffffffffffffffffffffffffffffffffff168152602001908152602001600020549050919050565b60006112f66007611fab565b60006113026007611ca2565b905061130e3382611fc1565b611318818561219a565b6113228184612207565b8091505092915050565b60606001805461133b90613370565b80601f016020809104026020016040519081016040528092919081815260200182805461136790613370565b80156113b45780601f10611389576101008083540402835291602001916113b4565b820191906000526020600020905b81548152906001019060200180831161139757829003601f168201915b5050505050905090565b6113d06113c9611be1565b838361240a565b5050565b3373ffffffffffffffffffffffffffffffffffffffff16600c60009054906101000a900473ffffffffffffffffffffffffffffffffffffffff1673ffffffffffffffffffffffffffffffffffffffff1614611464576040517f08c379a000000000000000000000000000000000000000000000000000000000815260040161145b906136d7565b60405180910390fd5b8060098190555050565b61147f611479611be1565b83611cb0565b6114be576040517f08c379a00000000000000000000000000000000000000000000000000000000081526004016114b590613645565b60405180910390fd5b6114ca84848484612576565b50505050565b6000600d60008381526020019081526020016000206003015490506000600d600084815260200190815260200160002060010160009054906101000a900473ffffffffffffffffffffffffffffffffffffffff169050813414611568576040517f08c379a000000000000000000000000000000000000000000000000000000000815260040161155f90613867565b60405180910390fd5b33600d600085815260200190815260200160002060020160006101000a81548173ffffffffffffffffffffffffffffffffffffffff021916908373ffffffffffffffffffffffffffffffffffffffff1602179055506001600d600085815260200190815260200160002060040160006101000a81548160ff0219169083151502179055506000600d600085815260200190815260200160002060010160006101000a81548173ffffffffffffffffffffffffffffffffffffffff021916908373ffffffffffffffffffffffffffffffffffffffff16021790555061164c6008611fab565b611657303385611d45565b600c60009054906101000a900473ffffffffffffffffffffffffffffffffffffffff1673ffffffffffffffffffffffffffffffffffffffff166108fc6009549081150290604051600060405180830381858888f193505050501580156116c1573d6000803e3d6000fd5b50600c60009054906101000a900473ffffffffffffffffffffffffffffffffffffffff1673ffffffffffffffffffffffffffffffffffffffff166108fc611707346125d2565b9081150290604051600060405180830381858888f19350505050158015611732573d6000803e3d6000fd5b508073ffffffffffffffffffffffffffffffffffffffff166108fc611756346125f6565b9081150290604051600060405180830381858888f19350505050158015611781573d6000803e3d6000fd5b50505050565b606061179282611b96565b60006006600084815260200190815260200160002080546117b290613370565b80601f01602080910402602001604051908101604052809291908181526020018280546117de90613370565b801561182b5780601f106118005761010080835404028352916020019161182b565b820191906000526020600020905b81548152906001019060200180831161180e57829003601f168201915b50505050509050600061183c61261a565b90506000815103611851578192505050611894565b60008251111561188657808260405160200161186e9291906138c3565b60405160208183030381529060405292505050611894565b61188f84612631565b925050505b919050565b3373ffffffffffffffffffffffffffffffffffffffff16600d600084815260200190815260200160002060020160009054906101000a900473ffffffffffffffffffffffffffffffffffffffff1673ffffffffffffffffffffffffffffffffffffffff161461193d576040517f08c379a000000000000000000000000000000000000000000000000000000000815260040161193490613959565b60405180910390fd5b6009543414611981576040517f08c379a0000000000000000000000000000000000000000000000000000000008152600401611978906139eb565b60405180910390fd5b6000600d600084815260200190815260200160002060040160006101000a81548160ff02191690831515021790555080600d60008481526020019081526020016000206003018190555033600d600084815260200190815260200160002060010160006101000a81548173ffffffffffffffffffffffffffffffffffffffff021916908373ffffffffffffffffffffffffffffffffffffffff16021790555030600d600084815260200190815260200160002060020160006101000a81548173ffffffffffffffffffffffffffffffffffffffff021916908373ffffffffffffffffffffffffffffffffffffffff160217905550611a7f6008612699565b611a8a333084611d45565b5050565b6000600560008473ffffffffffffffffffffffffffffffffffffffff1673ffffffffffffffffffffffffffffffffffffffff16815260200190815260200160002060008373ffffffffffffffffffffffffffffffffffffffff1673ffffffffffffffffffffffffffffffffffffffff16815260200190815260200160002060009054906101000a900460ff16905092915050565b6000600a54905090565b60007f01ffc9a7000000000000000000000000000000000000000000000000000000007bffffffffffffffffffffffffffffffffffffffffffffffffffffffff1916827bffffffffffffffffffffffffffffffffffffffffffffffffffffffff1916149050919050565b611b9f816126f5565b611bde576040517f08c379a0000000000000000000000000000000000000000000000000000000008152600401611bd590613743565b60405180910390fd5b50565b600033905090565b816004600083815260200190815260200160002060006101000a81548173ffffffffffffffffffffffffffffffffffffffff021916908373ffffffffffffffffffffffffffffffffffffffff160217905550808273ffffffffffffffffffffffffffffffffffffffff16611c5c83611182565b73ffffffffffffffffffffffffffffffffffffffff167f8c5be1e5ebec7d5bd14f71427d1e84f3dd0314c0f7b2291e5b200ac8c7c3b92560405160405180910390a45050565b600081600001549050919050565b600080611cbc83611182565b90508073ffffffffffffffffffffffffffffffffffffffff168473ffffffffffffffffffffffffffffffffffffffff161480611cfe5750611cfd8185611a8e565b5b80611d3c57508373ffffffffffffffffffffffffffffffffffffffff16611d24846106c1565b73ffffffffffffffffffffffffffffffffffffffff16145b91505092915050565b8273ffffffffffffffffffffffffffffffffffffffff16611d6582611182565b73ffffffffffffffffffffffffffffffffffffffff1614611dbb576040517f08c379a0000000000000000000000000000000000000000000000000000000008152600401611db290613a7d565b60405180910390fd5b600073ffffffffffffffffffffffffffffffffffffffff168273ffffffffffffffffffffffffffffffffffffffff1603611e2a576040517f08c379a0000000000000000000000000000000000000000000000000000000008152600401611e2190613b0f565b60405180910390fd5b611e35838383612761565b611e40600082611be9565b6001600360008573ffffffffffffffffffffffffffffffffffffffff1673ffffffffffffffffffffffffffffffffffffffff1681526020019081526020016000206000828254611e9091906134f4565b925050819055506001600360008473ffffffffffffffffffffffffffffffffffffffff1673ffffffffffffffffffffffffffffffffffffffff1681526020019081526020016000206000828254611ee79190613528565b92505081905550816002600083815260200190815260200160002060006101000a81548173ffffffffffffffffffffffffffffffffffffffff021916908373ffffffffffffffffffffffffffffffffffffffff160217905550808273ffffffffffffffffffffffffffffffffffffffff168473ffffffffffffffffffffffffffffffffffffffff167fddf252ad1be2c89b69c2b068fc378daa952ba7f163c4a11628f55a4df523b3ef60405160405180910390a4611fa6838383612766565b505050565b6001816000016000828254019250508190555050565b600073ffffffffffffffffffffffffffffffffffffffff168273ffffffffffffffffffffffffffffffffffffffff1603612030576040517f08c379a000000000000000000000000000000000000000000000000000000000815260040161202790613b7b565b60405180910390fd5b612039816126f5565b15612079576040517f08c379a000000000000000000000000000000000000000000000000000000000815260040161207090613be7565b60405180910390fd5b61208560008383612761565b6001600360008473ffffffffffffffffffffffffffffffffffffffff1673ffffffffffffffffffffffffffffffffffffffff16815260200190815260200160002060008282546120d59190613528565b92505081905550816002600083815260200190815260200160002060006101000a81548173ffffffffffffffffffffffffffffffffffffffff021916908373ffffffffffffffffffffffffffffffffffffffff160217905550808273ffffffffffffffffffffffffffffffffffffffff16600073ffffffffffffffffffffffffffffffffffffffff167fddf252ad1be2c89b69c2b068fc378daa952ba7f163c4a11628f55a4df523b3ef60405160405180910390a461219660008383612766565b5050565b6121a3826126f5565b6121e2576040517f08c379a00000000000000000000000000000000000000000000000000000000081526004016121d990613c79565b60405180910390fd5b806006600084815260200190815260200160002090816122029190613e45565b505050565b6000811161224a576040517f08c379a000000000000000000000000000000000000000000000000000000000815260040161224190613f63565b60405180910390fd5b600954341461228e576040517f08c379a0000000000000000000000000000000000000000000000000000000008152600401612285906139eb565b60405180910390fd5b6040518060a001604052808381526020013373ffffffffffffffffffffffffffffffffffffffff1681526020013073ffffffffffffffffffffffffffffffffffffffff16815260200182815260200160001515815250600d60008481526020019081526020016000206000820151816000015560208201518160010160006101000a81548173ffffffffffffffffffffffffffffffffffffffff021916908373ffffffffffffffffffffffffffffffffffffffff16021790555060408201518160020160006101000a81548173ffffffffffffffffffffffffffffffffffffffff021916908373ffffffffffffffffffffffffffffffffffffffff1602179055506060820151816003015560808201518160040160006101000a81548160ff0219169083151502179055509050506123c7333084611d45565b817fb640004f1d14576d0c209e240cad0410e0d8c0c33a09375861fbadae2588a98d33308460006040516123fe9493929190613f83565b60405180910390a25050565b8173ffffffffffffffffffffffffffffffffffffffff168373ffffffffffffffffffffffffffffffffffffffff1603612478576040517f08c379a000000000000000000000000000000000000000000000000000000000815260040161246f90614014565b60405180910390fd5b80600560008573ffffffffffffffffffffffffffffffffffffffff1673ffffffffffffffffffffffffffffffffffffffff16815260200190815260200160002060008473ffffffffffffffffffffffffffffffffffffffff1673ffffffffffffffffffffffffffffffffffffffff16815260200190815260200160002060006101000a81548160ff0219169083151502179055508173ffffffffffffffffffffffffffffffffffffffff168373ffffffffffffffffffffffffffffffffffffffff167f17307eab39ab6107e8899845ad3d59bd9653f200f220920489ca2b5937696c31836040516125699190612b86565b60405180910390a3505050565b612581848484611d45565b61258d8484848461276b565b6125cc576040517f08c379a00000000000000000000000000000000000000000000000000000000081526004016125c3906140a6565b60405180910390fd5b50505050565b6000600a546103e8836125e591906140f5565b6125ef9190614126565b9050919050565b6000600b546103e88361260991906140f5565b6126139190614126565b9050919050565b606060405180602001604052806000815250905090565b606061263c82611b96565b600061264661261a565b905060008151116126665760405180602001604052806000815250612691565b80612670846128f2565b6040516020016126819291906138c3565b6040516020818303038152906040525b915050919050565b600081600001549050600081116126e5576040517f08c379a00000000000000000000000000000000000000000000000000000000081526004016126dc906141b4565b60405180910390fd5b6001810382600001819055505050565b60008073ffffffffffffffffffffffffffffffffffffffff166002600084815260200190815260200160002060009054906101000a900473ffffffffffffffffffffffffffffffffffffffff1673ffffffffffffffffffffffffffffffffffffffff1614159050919050565b505050565b505050565b600061278c8473ffffffffffffffffffffffffffffffffffffffff16612a52565b156128e5578373ffffffffffffffffffffffffffffffffffffffff1663150b7a026127b5611be1565b8786866040518563ffffffff1660e01b81526004016127d79493929190614229565b6020604051808303816000875af192505050801561281357506040513d601f19601f82011682018060405250810190612810919061428a565b60015b612895573d8060008114612843576040519150601f19603f3d011682016040523d82523d6000602084013e612848565b606091505b50600081510361288d576040517f08c379a0000000000000000000000000000000000000000000000000000000008152600401612884906140a6565b60405180910390fd5b805181602001fd5b63150b7a0260e01b7bffffffffffffffffffffffffffffffffffffffffffffffffffffffff1916817bffffffffffffffffffffffffffffffffffffffffffffffffffffffff1916149150506128ea565b600190505b949350505050565b606060008203612939576040518060400160405280600181526020017f30000000000000000000000000000000000000000000000000000000000000008152509050612a4d565b600082905060005b6000821461296b5780806129549061358b565b915050600a8261296491906140f5565b9150612941565b60008167ffffffffffffffff81111561298757612986612faa565b5b6040519080825280601f01601f1916602001820160405280156129b95781602001600182028036833780820191505090505b5090505b60008514612a46576001826129d291906134f4565b9150600a856129e191906142b7565b60306129ed9190613528565b60f81b818381518110612a0357612a0261355c565b5b60200101907effffffffffffffffffffffffffffffffffffffffffffffffffffffffffffff1916908160001a905350600a85612a3f91906140f5565b94506129bd565b8093505050505b919050565b6000808273ffffffffffffffffffffffffffffffffffffffff163b119050919050565b6040518060a0016040528060008152602001600073ffffffffffffffffffffffffffffffffffffffff168152602001600073ffffffffffffffffffffffffffffffffffffffff168152602001600081526020016000151581525090565b6000604051905090565b600080fd5b600080fd5b60007fffffffff0000000000000000000000000000000000000000000000000000000082169050919050565b612b1b81612ae6565b8114612b2657600080fd5b50565b600081359050612b3881612b12565b92915050565b600060208284031215612b5457612b53612adc565b5b6000612b6284828501612b29565b91505092915050565b60008115159050919050565b612b8081612b6b565b82525050565b6000602082019050612b9b6000830184612b77565b92915050565b600081519050919050565b600082825260208201905092915050565b60005b83811015612bdb578082015181840152602081019050612bc0565b60008484015250505050565b6000601f19601f8301169050919050565b6000612c0382612ba1565b612c0d8185612bac565b9350612c1d818560208601612bbd565b612c2681612be7565b840191505092915050565b60006020820190508181036000830152612c4b8184612bf8565b905092915050565b6000819050919050565b612c6681612c53565b8114612c7157600080fd5b50565b600081359050612c8381612c5d565b92915050565b600060208284031215612c9f57612c9e612adc565b5b6000612cad84828501612c74565b91505092915050565b600073ffffffffffffffffffffffffffffffffffffffff82169050919050565b6000612ce182612cb6565b9050919050565b612cf181612cd6565b82525050565b6000602082019050612d0c6000830184612ce8565b92915050565b612d1b81612cd6565b8114612d2657600080fd5b50565b600081359050612d3881612d12565b92915050565b60008060408385031215612d5557612d54612adc565b5b6000612d6385828601612d29565b9250506020612d7485828601612c74565b9150509250929050565b600081519050919050565b600082825260208201905092915050565b6000819050602082019050919050565b612db381612c53565b82525050565b6000612dc482612cb6565b9050919050565b612dd481612db9565b82525050565b612de381612b6b565b82525050565b60a082016000820151612dff6000850182612daa565b506020820151612e126020850182612dcb565b506040820151612e256040850182612dcb565b506060820151612e386060850182612daa565b506080820151612e4b6080850182612dda565b50505050565b6000612e5d8383612de9565b60a08301905092915050565b6000602082019050919050565b6000612e8182612d7e565b612e8b8185612d89565b9350612e9683612d9a565b8060005b83811015612ec7578151612eae8882612e51565b9750612eb983612e69565b925050600181019050612e9a565b5085935050505092915050565b60006020820190508181036000830152612eee8184612e76565b905092915050565b612eff81612c53565b82525050565b6000602082019050612f1a6000830184612ef6565b92915050565b600080600060608486031215612f3957612f38612adc565b5b6000612f4786828701612d29565b9350506020612f5886828701612d29565b9250506040612f6986828701612c74565b9150509250925092565b600060208284031215612f8957612f88612adc565b5b6000612f9784828501612d29565b91505092915050565b600080fd5b600080fd5b7f4e487b7100000000000000000000000000000000000000000000000000000000600052604160045260246000fd5b612fe282612be7565b810181811067ffffffffffffffff8211171561300157613000612faa565b5b80604052505050565b6000613014612ad2565b90506130208282612fd9565b919050565b600067ffffffffffffffff8211156130405761303f612faa565b5b61304982612be7565b9050602081019050919050565b82818337600083830152505050565b600061307861307384613025565b61300a565b90508281526020810184848401111561309457613093612fa5565b5b61309f848285613056565b509392505050565b600082601f8301126130bc576130bb612fa0565b5b81356130cc848260208601613065565b91505092915050565b600080604083850312156130ec576130eb612adc565b5b600083013567ffffffffffffffff81111561310a57613109612ae1565b5b613116858286016130a7565b925050602061312785828601612c74565b9150509250929050565b61313a81612b6b565b811461314557600080fd5b50565b60008135905061315781613131565b92915050565b6000806040838503121561317457613173612adc565b5b600061318285828601612d29565b925050602061319385828601613148565b9150509250929050565b600067ffffffffffffffff8211156131b8576131b7612faa565b5b6131c182612be7565b9050602081019050919050565b60006131e16131dc8461319d565b61300a565b9050828152602081018484840111156131fd576131fc612fa5565b5b613208848285613056565b509392505050565b600082601f83011261322557613224612fa0565b5b81356132358482602086016131ce565b91505092915050565b6000806000806080858703121561325857613257612adc565b5b600061326687828801612d29565b945050602061327787828801612d29565b935050604061328887828801612c74565b925050606085013567ffffffffffffffff8111156132a9576132a8612ae1565b5b6132b587828801613210565b91505092959194509250565b600080604083850312156132d8576132d7612adc565b5b60006132e685828601612c74565b92505060206132f785828601612c74565b9150509250929050565b6000806040838503121561331857613317612adc565b5b600061332685828601612d29565b925050602061333785828601612d29565b9150509250929050565b7f4e487b7100000000000000000000000000000000000000000000000000000000600052602260045260246000fd5b6000600282049050600182168061338857607f821691505b60208210810361339b5761339a613341565b5b50919050565b7f4552433732313a20617070726f76616c20746f2063757272656e74206f776e6560008201527f7200000000000000000000000000000000000000000000000000000000000000602082015250565b60006133fd602183612bac565b9150613408826133a1565b604082019050919050565b6000602082019050818103600083015261342c816133f0565b9050919050565b7f4552433732313a20617070726f76652063616c6c6572206973206e6f7420746f60008201527f6b656e206f776e6572206e6f7220617070726f76656420666f7220616c6c0000602082015250565b600061348f603e83612bac565b915061349a82613433565b604082019050919050565b600060208201905081810360008301526134be81613482565b9050919050565b7f4e487b7100000000000000000000000000000000000000000000000000000000600052601160045260246000fd5b60006134ff82612c53565b915061350a83612c53565b9250828203905081811115613522576135216134c5565b5b92915050565b600061353382612c53565b915061353e83612c53565b9250828201905080821115613556576135556134c5565b5b92915050565b7f4e487b7100000000000000000000000000000000000000000000000000000000600052603260045260246000fd5b600061359682612c53565b91507fffffffffffffffffffffffffffffffffffffffffffffffffffffffffffffffff82036135c8576135c76134c5565b5b600182019050919050565b7f4552433732313a2063616c6c6572206973206e6f7420746f6b656e206f776e6560008201527f72206e6f7220617070726f766564000000000000000000000000000000000000602082015250565b600061362f602e83612bac565b915061363a826135d3565b604082019050919050565b6000602082019050818103600083015261365e81613622565b9050919050565b7f4f6e6c79206d61726b6574706c616365206f776e65722063616e20757064617460008201527f6520746865206c697374696e672070726963652e000000000000000000000000602082015250565b60006136c1603483612bac565b91506136cc82613665565b604082019050919050565b600060208201905081810360008301526136f0816136b4565b9050919050565b7f4552433732313a20696e76616c696420746f6b656e2049440000000000000000600082015250565b600061372d601883612bac565b9150613738826136f7565b602082019050919050565b6000602082019050818103600083015261375c81613720565b9050919050565b7f4552433732313a2061646472657373207a65726f206973206e6f74206120766160008201527f6c6964206f776e65720000000000000000000000000000000000000000000000602082015250565b60006137bf602983612bac565b91506137ca82613763565b604082019050919050565b600060208201905081810360008301526137ee816137b2565b9050919050565b7f506c65617365207375626d6974207468652061736b696e67207072696365207460008201527f6f20636f6d706c657465207468652070757263686173652e0000000000000000602082015250565b6000613851603883612bac565b915061385c826137f5565b604082019050919050565b6000602082019050818103600083015261388081613844565b9050919050565b600081905092915050565b600061389d82612ba1565b6138a78185613887565b93506138b7818560208601612bbd565b80840191505092915050565b60006138cf8285613892565b91506138db8284613892565b91508190509392505050565b7f4f6e6c79206974656d206f776e65722063616e20706572666f726d207468697360008201527f206f7065726174696f6e2e000000000000000000000000000000000000000000602082015250565b6000613943602b83612bac565b915061394e826138e7565b604082019050919050565b6000602082019050818103600083015261397281613936565b9050919050565b7f5072696365206d75737420626520657175616c20746f206c697374696e67207060008201527f726963652e000000000000000000000000000000000000000000000000000000602082015250565b60006139d5602583612bac565b91506139e082613979565b604082019050919050565b60006020820190508181036000830152613a04816139c8565b9050919050565b7f4552433732313a207472616e736665722066726f6d20696e636f72726563742060008201527f6f776e6572000000000000000000000000000000000000000000000000000000602082015250565b6000613a67602583612bac565b9150613a7282613a0b565b604082019050919050565b60006020820190508181036000830152613a9681613a5a565b9050919050565b7f4552433732313a207472616e7366657220746f20746865207a65726f2061646460008201527f7265737300000000000000000000000000000000000000000000000000000000602082015250565b6000613af9602483612bac565b9150613b0482613a9d565b604082019050919050565b60006020820190508181036000830152613b2881613aec565b9050919050565b7f4552433732313a206d696e7420746f20746865207a65726f2061646472657373600082015250565b6000613b65602083612bac565b9150613b7082613b2f565b602082019050919050565b60006020820190508181036000830152613b9481613b58565b9050919050565b7f4552433732313a20746f6b656e20616c7265616479206d696e74656400000000600082015250565b6000613bd1601c83612bac565b9150613bdc82613b9b565b602082019050919050565b60006020820190508181036000830152613c0081613bc4565b9050919050565b7f45524337323155524953746f726167653a2055524920736574206f66206e6f6e60008201527f6578697374656e7420746f6b656e000000000000000000000000000000000000602082015250565b6000613c63602e83612bac565b9150613c6e82613c07565b604082019050919050565b60006020820190508181036000830152613c9281613c56565b9050919050565b60008190508160005260206000209050919050565b60006020601f8301049050919050565b600082821b905092915050565b600060088302613cfb7fffffffffffffffffffffffffffffffffffffffffffffffffffffffffffffffff82613cbe565b613d058683613cbe565b95508019841693508086168417925050509392505050565b6000819050919050565b6000613d42613d3d613d3884612c53565b613d1d565b612c53565b9050919050565b6000819050919050565b613d5c83613d27565b613d70613d6882613d49565b848454613ccb565b825550505050565b600090565b613d85613d78565b613d90818484613d53565b505050565b5b81811015613db457613da9600082613d7d565b600181019050613d96565b5050565b601f821115613df957613dca81613c99565b613dd384613cae565b81016020851015613de2578190505b613df6613dee85613cae565b830182613d95565b50505b505050565b600082821c905092915050565b6000613e1c60001984600802613dfe565b1980831691505092915050565b6000613e358383613e0b565b9150826002028217905092915050565b613e4e82612ba1565b67ffffffffffffffff811115613e6757613e66612faa565b5b613e718254613370565b613e7c828285613db8565b600060209050601f831160018114613eaf5760008415613e9d578287015190505b613ea78582613e29565b865550613f0f565b601f198416613ebd86613c99565b60005b82811015613ee557848901518255600182019150602085019450602081019050613ec0565b86831015613f025784890151613efe601f891682613e0b565b8355505b6001600288020188555050505b505050505050565b7f5072696365206d757374206265206174206c6561737420312e00000000000000600082015250565b6000613f4d601983612bac565b9150613f5882613f17565b602082019050919050565b60006020820190508181036000830152613f7c81613f40565b9050919050565b6000608082019050613f986000830187612ce8565b613fa56020830186612ce8565b613fb26040830185612ef6565b613fbf6060830184612b77565b95945050505050565b7f4552433732313a20617070726f766520746f2063616c6c657200000000000000600082015250565b6000613ffe601983612bac565b915061400982613fc8565b602082019050919050565b6000602082019050818103600083015261402d81613ff1565b9050919050565b7f4552433732313a207472616e7366657220746f206e6f6e20455243373231526560008201527f63656976657220696d706c656d656e7465720000000000000000000000000000602082015250565b6000614090603283612bac565b915061409b82614034565b604082019050919050565b600060208201905081810360008301526140bf81614083565b9050919050565b7f4e487b7100000000000000000000000000000000000000000000000000000000600052601260045260246000fd5b600061410082612c53565b915061410b83612c53565b92508261411b5761411a6140c6565b5b828204905092915050565b600061413182612c53565b915061413c83612c53565b925082820261414a81612c53565b91508282048414831517614161576141606134c5565b5b5092915050565b7f436f756e7465723a2064656372656d656e74206f766572666c6f770000000000600082015250565b600061419e601b83612bac565b91506141a982614168565b602082019050919050565b600060208201905081810360008301526141cd81614191565b9050919050565b600081519050919050565b600082825260208201905092915050565b60006141fb826141d4565b61420581856141df565b9350614215818560208601612bbd565b61421e81612be7565b840191505092915050565b600060808201905061423e6000830187612ce8565b61424b6020830186612ce8565b6142586040830185612ef6565b818103606083015261426a81846141f0565b905095945050505050565b60008151905061428481612b12565b92915050565b6000602082840312156142a05761429f612adc565b5b60006142ae84828501614275565b91505092915050565b60006142c282612c53565b91506142cd83612c53565b9250826142dd576142dc6140c6565b5b82820690509291505056fea264697066735822122048718ff082b1c736d9a585af5ad1b4391a408247a6276a11eb4f5b3b5ae0f3e064736f6c63430008110033",
  "linkReferences": {},
  "deployedLinkReferences": {}
}